:100000000C945B000C9483000C9483000C9483008C
:100010000C9483000C9483000C9483000C94830054
:100020000C9483000C9483000C9483000C94830044
:100030000C9483000C9483000C9483000C94830034
:100040000C944A020C9483000C949C040C9483003E
:100050000C9483000C9483000C9483000C94830014
:100060000C9483000C948300000024272A000025B0
:10007000282B000023262904040404040404040299
:100080000202020202030303030303010204081035
:100090002040800102040810200102040810200002
:1000A0000000070002010000030406000000000039
:1000B00000000000490211241FBECFEFD4E0DEBFD4
:1000C000CDBF11E0A0E0B1E0E0E4FCE002C00590AB
:1000D0000D92AE30B107D9F711E0AEE0B1E001C04A
:1000E0001D92AF39B107E1F710E0C6EBD0E004C0D4
:1000F0002297FE010E941B06C43BD107C9F70E944C
:1001000072010C941F060C9400000E94D7030895FE
:1001100061E08DE00E946D0361E08DE090E00E945F
:10012000850060E971E080E090E00E94870260E075
:100130008DE090E00E94850060E971E080E090E051
:100140000E94870261E08DE090E00E94850060E9F6
:1001500071E080E090E00E94870260E08DE090E036
:100160000E94850060E971E080E090E00E948702D3
:1001700061E08DE090E00E94850060E971E080E040
:1001800090E00E94870260E08DE090E00E94850090
:10019000089560E080910001909101010E94850026
:1001A00060E080910201909103010E94850060E06F
:1001B00080910801909109010E94850060E0809182
:1001C0000A0190910B010E9485006CE271E080E0D1
:1001D00090E00E948702089561E080910001909173
:1001E00001010E94850060E080910201909103016D
:1001F0000E94850061E080910801909109010E94B0
:10020000850060E080910A0190910B010E948500B9
:10021000089560E080910001909101010E948500A5
:1002200061E080910201909103010E94850060E0ED
:1002300080910801909109010E94850061E0809100
:100240000A0190910B010E948500089568E770E013
:10025000809104010E94190368E770E08091060113
:100260000E9419030E94090168EB7BE080E090E0A6
:100270000E9487020E94C9000E94EC0068EB7BE0AC
:1002800080E090E00E9487020E94C900089582E009
:1002900090E090930F0180930E0161E00E946D0346
:1002A00060E080910E010E94D70380910E01909131
:1002B0000F01019690930F0180930E018D309105EF
:1002C00064F340E855E260E070E086E191E00E946E
:1002D000430260E084E00E946D0360E085E00E94DC
:1002E0006D0308950E94B6020E9447010E942601F4
:1002F000FDCF08950895CB01BA0133274427552730
:100300000E94E20408952AE00E947B010895AB0157
:10031000662777270E9483010895862F0E94DA04BA
:100320000895862F0E94DA0408950F931F938C017D
:100330006DE00E9491016AE0C8010E9491011F9145
:100340000F9108950F931F938C010E948301C801A0
:100350000E9495011F910F9108950F931F938C0197
:100360000E948701C8010E9495011F910F91089575
:100370000F931F938C010E948D01C8010E9495016B
:100380001F910F9108950F931F938C010E9491016B
:10039000C8010E9495011F910F910895EF92FF925D
:1003A0000F931F93CF93DF93EC017A018B0177FFBB
:1003B0000BC06DE20E94910110950095F094E094BD
:1003C000E11CF11C011D111D2AE0B801A701CE019D
:1003D0000E947B01DF91CF911F910F91FF90EF90D1
:1003E00008950F931F938C010E94CE01C8010E94B3
:1003F00095011F910F9108952115310521F4642F66
:100400000E94910108952A30310519F40E94CE010D
:1004100008950E947B0108950F931F938C010E9401
:10042000FC01C8010E9495011F910F910895AB0135
:10043000662757FD6095762F0E94CE0108950F9391
:100440001F938C010E941702C8010E9495011F9101
:100450000F910895CB010E94A80508950F931F9353
:100460008C010E942A02C8010E9495011F910F91E0
:1004700008950E94930408950E94740408950E94B0
:10048000630499270895CB01BA010E9422040895BC
:10049000089508951F920F920FB60F9211248F9313
:1004A0009F93AF93BF9380911B0190911C01A091EA
:1004B0001D01B0911E010196A11DB11D80931B016C
:1004C00090931C01A0931D01B0931E01BF91AF91A9
:1004D0009F918F910F900FBE0F901F901895609174
:1004E0001B0170911C0180911D0190911E0127E05C
:1004F000660F771F881F991F2A95D1F72DE730E0E7
:1005000040E050E00E94C805CA01B9010895AF92C9
:10051000BF92CF92DF92EF92FF920F931F935B01F6
:100520006C010E946F027B018C010E946F026E19A8
:100530007F09800B910B6A157B058C059D05A8F33F
:100540001F910F91FF90EF90DF90CF90BF90AF90F1
:100550000895019751F0880F991F880F991F0297EE
:100560002FB7F8940197F1F72FBF08957894109260
:100570001B0110921C0110921D0110921E0184B5E6
:10058000826084BD84B5816084BD85B5826085BD8F
:1005900085B5816085BDEEE6F0E080818160808375
:1005A000E1E8F0E0808182608083808181608083E7
:1005B000E0E8F0E0808181608083E1EBF0E0808121
:1005C00084608083E0EBF0E0808181608083EAE7F3
:1005D000F0E080818460808380818260808380817C
:1005E000816080838081806880831092C10008953B
:1005F00080930C01089590910C019295990F990F99
:10060000907C8F70982B90937C0080917A0080640E
:1006100080937A0080917A0086FDFCCF209178004B
:10062000809179009927982F88273327822B932B45
:1006300008951F93CF93DF93182FEB0161E00E9481
:100640006D03E12FFF27E156FF4F8491833051F472
:1006500080918000806880938000D0938900C0934F
:10066000880037C0843051F480918000806280938C
:100670008000D0938B00C0938A002BC0813029F476
:1006800084B5806884BDC7BD24C0823029F484B598
:10069000806284BDC8BD1DC0863041F48091B00029
:1006A00080688093B000C093B30013C0873041F4DA
:1006B0008091B00080628093B000C093B40009C004
:1006C000C038D10514F460E001C061E0812F0E94C0
:1006D000D703DF91CF911F910895282F3327C901A8
:1006E00085579F4FFC01949129583F4FF901849100
:1006F000882381F0E82FFF27E859FF4FE491FF2777
:10070000662329F4808190958923808308958081D0
:10071000892B80830895482F5527CA0181569F4F02
:10072000FC012491CA0185579F4FFC0194914958BF
:100730005F4FFA013491332319F480E090E008957B
:10074000222331F1233021F4809180008F7705C07E
:10075000243031F4809180008F7D8093800018C018
:10076000213019F484B58F7704C0223021F484B588
:100770008F7D84BD0DC0263021F48091B0008F772D
:1007800005C0273029F48091B0008F7D8093B000A0
:10079000E32FFF27EE58FF4FE491FF27808120E0F1
:1007A00030E0892311F021E030E0C9010895482F9D
:1007B0005527CA0181569F4FFC012491CA018557D4
:1007C0009F4FFC01949149585F4FFA0134913323B4
:1007D000C1F1222331F1233021F4809180008F7701
:1007E00005C0243031F4809180008F7D809380009B
:1007F00018C0213019F484B58F7704C0223021F459
:1008000084B58F7D84BD0DC0263021F48091B00069
:100810008F7705C0273029F48091B0008F7D8093B9
:10082000B000E32FFF27E359FF4FE491FF27662332
:1008300029F4808190958923808308958081892B74
:1008400080830895EF92FF920F931F937B018C0199
:1008500022E030E040E050E00E94EA05205C3D4BA1
:10086000404F5F4FCA01B901A80197010E94EA05F4
:100870002150304040405040BB2757FDBA95A52F2E
:10088000942F832F2F5F3F4F4F4F5F4F8093C500B3
:1008900021502093C400E1ECF0E0808180618083EE
:1008A0008081886080838081806880831F910F9120
:1008B000FF90EF900895982F8091C00085FFFCCFA6
:1008C0009093C6000895809117019091180120918E
:1008D000190130911A01821B930B80589F4F60E8D9
:1008E00070E00E94B50508954091190150911A01D8
:1008F00080911701909118018417950719F48FEFD3
:100900009FEF0895FA01E15EFE4F2081CA01019632
:1009100060E870E00E94B50590931A018093190178
:10092000822F992708958091190190911A0190932F
:1009300018018093170108951F920F920FB60F921E
:1009400011242F933F934F935F936F937F938F93D4
:100950009F93AF93BF93EF93FF934091C600E091B5
:100960001701F0911801CF01019660E870E00E9434
:10097000B5059C018091190190911A01281739073A
:1009800039F0E15EFE4F4083309318012093170148
:10099000FF91EF91BF91AF919F918F917F916F9157
:1009A0005F914F913F912F910F900FBE0F901F902D
:1009B00018950895982F8091C00085FFFCCF9093E3
:1009C000C60008952F923F924F925F926F927F924E
:1009D0008F929F92AF92BF92CF92DF92EF92FF924F
:1009E0000F931F93CF93DF93CDB7DEB7A0970FB6CA
:1009F000F894DEBF0FBECDBF6B017C0129013A0127
:100A0000611571058105910541F48091C00085FF54
:100A1000FCCF80E38093C60041C088249924540110
:100A20001E010894211C311C8101080D191DC701EC
:100A3000B601A30192010E94C805F80160830894E1
:100A4000811C911CA11CB11CC701B601A30192011C
:100A50000E94C80569017A0121153105410551053A
:100A600019F79E012F5F3F4F14C008948108910829
:100A7000A108B108F901E80DF91DE081EA3010F490
:100A8000E05D01C0E95C8091C00085FFFCCFE09390
:100A9000C60081149104A104B10439F7A0960FB6E1
:100AA000F894DEBF0FBECDBFDF91CF911F910F91A4
:100AB000FF90EF90DF90CF90BF90AF909F908F907E
:100AC0007F906F905F904F903F902F90089520E11E
:100AD00030E040E050E00E94E204089528E030E079
:100AE00040E050E00E94E204089522E030E040E05F
:100AF00050E00E94E20408958091C00085FFFCCF81
:100B00008AE08093C6000895EF92FF920F931F939F
:100B10007B018C0197FF0FC08091C00085FFFCCF47
:100B20008DE28093C60010950095F094E094E11C4E
:100B3000F11C011D111D2AE030E040E050E0C80129
:100B4000B7010E94E2041F910F91FF90EF9008956A
:100B5000FC0107C08091C00085FFFCCF31969093C7
:100B6000C60090819923B1F7089597FB092E0726B7
:100B70000AD077FD04D049D006D000201AF4709531
:100B800061957F4F0895F6F7909581959F4F089551
:100B9000A1E21A2EAA1BBB1BFD010DC0AA1FBB1F81
:100BA000EE1FFF1FA217B307E407F50720F0A21BF3
:100BB000B30BE40BF50B661F771F881F991F1A9460
:100BC00069F760957095809590959B01AC01BD018A
:100BD000CF01089597FB092E05260ED057FD04D0AE
:100BE000D7DF0AD0001C38F45095409530952195F8
:100BF0003F4F4F4F5F4F0895F6F790958095709552
:100C000061957F4F8F4F9F4F0895AA1BBB1B51E1EA
:100C100007C0AA1FBB1FA617B70710F0A61BB70B6C
:100C2000881F991F5A95A9F780959095BC01CD0111
:100C30000895EE0FFF1F0590F491E02D0994FFCF6A
:0E0C4000020003000A0009000800070001007E
:00000001FF
