:100000000C945A000C9477000C9477000C947700B1
:100010000C9477000C9477000C9477000C94770084
:100020000C9477000C9477000C9477000C94770074
:100030000C9477000C9477000C9477000C94770064
:100040000C94BC000C9477000C9477000C9477000F
:100050000C9477000C9477000C9477000C94770044
:100060000C9477000C947700000024272A000025C8
:10007000282B000023262904040404040404040299
:100080000202020202030303030303010204081035
:100090002040800102040810200102040810200002
:1000A0000000070002010000030406000000000039
:1000B0000000000011241FBECFEFD4E0DEBFCDBF93
:1000C00011E0A0E0B1E0E4E9F4E002C005900D9297
:1000D000A030B107D9F711E0A0E0B1E001C01D9256
:1000E000A430B107E1F70E94B7000C9449020C94C8
:1000F00000000895CF93DF9361E082E00E947201D7
:1001000061E083E00E94720161E082E00E94DC0114
:1001100060E083E00E94DC0160E082E00E94720106
:1001200060E082E00E94DC01C0E0D0E082E00E945A
:100130009001892B29F0219685E7C033D807B1F7C4
:1001400061E083E00E94DC0160E082E00E94DC016B
:1001500061E083E00E94720161E082E00E9472012E
:1001600088EE93E00E941B01DF91CF9108950E94D9
:1001700028010E947A00FDCF1F920F920FB60F92B6
:1001800011248F939F93AF93BF938091000190911F
:100190000101A0910201B09103010196A11DB11DC1
:1001A0008093000190930101A0930201B093030199
:1001B000BF91AF919F918F910F900FBE0F901F90A5
:1001C0001895609100017091010180910201909158
:1001D000030127E0660F771F881F991F2A95D1F723
:1001E0002DE730E040E050E00E942702CA01B9014B
:1001F0000895AF92BF92CF92DF92EF92FF920F934A
:100200001F935B016C010E94E1007B018C010E9445
:10021000E1006E197F09800B910B6A157B058C0537
:100220009D05A8F31F910F91FF90EF90DF90CF9065
:10023000BF90AF900895019751F0880F991F880FD4
:10024000991F02972FB7F8940197F1F72FBF0895E0
:100250007894109200011092010110920201109204
:10026000030184B5826084BD84B5816084BD85B599
:10027000826085BD85B5816085BDEEE6F0E0808158
:1002800081608083E1E8F0E080818260808380810A
:1002900081608083E0E8F0E0808181608083E1EB31
:1002A000F0E0808184608083E0EBF0E08081816019
:1002B0008083ECE7F0E080818F77808380818064A9
:1002C0008083EAE7F0E080818460808380818260BF
:1002D00080838081816080838081806880831092A8
:1002E000C1000895282F3327C90185579F4FFC016E
:1002F000949129583F4FF9018491882381F0E82F88
:10030000FF27E859FF4FE491FF27662329F48081F6
:1003100090958923808308958081892B8083089517
:10032000482F5527CA0181569F4FFC012491CA01CD
:1003300085579F4FFC01949149585F4FFA013491C2
:10034000332319F480E090E00895222331F1233023
:1003500021F4809180008F7705C0243031F48091A2
:1003600080008F7D8093800018C0213019F484B5FF
:100370008F7704C0223021F484B58F7D84BD0DC0F9
:10038000263021F48091B0008F7705C0273029F402
:100390008091B0008F7D8093B000E32FFF27EE584F
:1003A000FF4FE491FF27808120E030E0892311F0A6
:1003B00021E030E0C9010895482F5527CA01815630
:1003C0009F4FFC012491CA0185579F4FFC019491D6
:1003D00049585F4FFA0134913323C1F1222331F19F
:1003E000233021F4809180008F7705C0243031F4D0
:1003F000809180008F7D8093800018C0213019F497
:1004000084B58F7704C0223021F484B58F7D84BDFC
:100410000DC0263021F48091B0008F7705C02730C1
:1004200029F48091B0008F7D8093B000E32FFF27E7
:10043000E359FF4FE491FF27662329F480819095CB
:100440008923808308958081892B80830895A1E288
:100450001A2EAA1BBB1BFD010DC0AA1FBB1FEE1F3E
:10046000FF1FA217B307E407F50720F0A21BB30B89
:10047000E40BF50B661F771F881F991F1A9469F705
:1004800060957095809590959B01AC01BD01CF0161
:040490000895FFCFFD
:00000001FF
